S01B0000626F727261646F72206576616C756163696F6E2E7372656367
S11300000C9434000C943E000C943E000C943E007E
S11300100C943E000C943E000C943E000C943E0064
S11300200C943E000C943E000C943E000C943E0054
S11300300C943E000C943E000C943E000C943E0044
S11300400C943E000C943E000C943E000C943E0034
S11300500C943E000C943E000C943E000C943E0024
S11300600C943E000C943E0011241FBECFEFD8E048
S1130070DEBFCDBF0E9456000C9476000C940000A5
S113008084B18E7F84B9089510928000089581E42C
S113009080938100089586B38072089580E286BBC0
S11300A0089580918600909187000895CF93DF93FF
S11300B00E9440000E9444000E9447000E944B009E
S11300C08823E1F30E945100EC010E944E000E943B
S11300D04B008823E1F30E9451008C1B9D0BEC0123
S11300E00E944E00CE01DF91CF910895F894FFCF86
S9030000FC
