S00D0000656A3130622E7372656385
S11300000C9434000C9446000C9446000C94460066
S11300100C9446000C9446000C9446000C94460044
S11300200C9446000C9446000C9446000C94460034
S11300300C9446000C9446000C9469000C94460001
S11300400C9446000C9446000C9446000C94460014
S11300500C9446000C9446000C9446000C94460004
S11300600C9446000C94460011241FBECFEFD8E038
S1130070DEBFCDBF21E0A0E0B1E001C01D92A13000
S1130080B207E1F70E945F000C947A000C94000020
S113009082E084BD93E095BD9CE797BD85BB8093CA
S11300A06E000895CF93C82F109200010E9448005B
S11300B07894809100018C17E0F3CF91089581E04A
S11300C084B98FEF0E94520095B181E0892785B9E8
S11300D0F8CF1F920F920FB60F9211248F93809135
S11300E000018F5F809300018F910F900FBE0F90DE
S10B00F01F901895F894FFCF4E
S9030000FC
