S00D0000656A3130622E7372656385
S11300000C9434000C9446000C9446000C94460066
S11300100C9446000C9446000C9446000C94460044
S11300200C9446000C9446000C9446000C94460034
S11300300C9446000C9446000C9469000C94460001
S11300400C9446000C9446000C9446000C94460014
S11300500C9446000C9446000C9446000C94460004
S11300600C9446000C94460011241FBECFEFD8E038
S1130070DEBFCDBF21E0A0E0B1E001C01D92A13000
S1130080B207E1F70E9448000C947A000C94000037
S113009081E084B984E60E945C0095B181E08927FF
S11300A085B9F8CF82E084BD93E095BD9DE797BD07
S11300B085BB80936E000895CF93C82F10920001E2
S11300C00E9452007894809100018C17E0F3CF9144
S11300D008951F920F920FB60F9211248F9380915F
S11300E000018F5F809300018F910F900FBE0F90DE
S10B00F01F901895F894FFCF4E
S9030000FC
