S00C0000656A31302E73726563E8
S11300000C9434000C943E000C943E000C943E007E
S11300100C943E000C943E000C943E000C943E0064
S11300200C943E000C943E000C943E000C943E0054
S11300300C943E000C943E000C9450000C943E0032
S11300400C943E000C943E000C943E000C943E0034
S11300500C943E000C943E000C943E000C943E0024
S11300600C943E000C943E0011241FBECFEFD8E048
S1130070DEBFCDBF0E9440000C9462000C940000CF
S113008084B1806284B98DE787BD82E084BD93E04A
S113009095BD80936E00789417B88FEF8AB9FFCF1F
S11300A01F920F920FB60F9211248F939F9395B1C5
S11300B081E0892785B99F918F910F900FBE0F9092
S10B00C01F901895F894FFCF7E
S9030000FC
