S00C0000656A31302E73726563E8
S11300000C9434000C9446000C9446000C94460066
S11300100C9446000C9446000C9446000C94460044
S11300200C9446000C9446000C9446000C94460034
S11300300C9446000C9446000C9446000C94460024
S11300400C9463000C9446000C9446000C944600F7
S11300500C9446000C9446000C9446000C94460004
S11300600C9446000C94460011241FBECFEFD8E038
S1130070DEBFCDBF21E0A0E0B1E001C01D92A13000
S1130080B207E1F70E9448000C9474000C9400003D
S113009084B1816084B91092000114BC85E085BDEF
S11300A081E085BB80936E00789417B88FEF8AB98E
S11300B0809100018330E0F31092000195B181E05A
S11300C0892785B9F5CF1F920F920FB60F9211248D
S11300D08F93809100018F5F809300018F910F9027
S10F00E00FBE0F901F901895F894FFCFEE
S9030000FC
