S00B000045636F2E7372656302
S11300000C9434000C943E000C943E000C943E007E
S11300100C943E000C943E000C943E000C943E0064
S11300200C943E000C943E000C943E000C943E0054
S11300300C943E000C943E000C943E000C943E0044
S11300400C943E000C943E000C943E000C943E0034
S11300500C943E000C943E000C943E000C943E0024
S11300600C943E000C943E0011241FBECFEFD8E048
S1130070DEBFCDBF0E9440000C9463000C940000CE
S1130080CF93DF931F92CDB7DEB78FEF84B9109271
S1130090C00088E18093C10086E08093C20087E6B7
S11300A08093C4008091C0008823E4F78091C60047
S11300B089838091C00085FFFCCF89818093C6002D
S10D00C0898185B9EFCFF894FFCFD2
S9030000FC
