S0180000726563696269722063617261637465722E73726563C7
S11300000C9434000C943E000C943E000C943E007E
S11300100C943E000C943E000C943E000C943E0064
S11300200C943E000C943E000C943E000C943E0054
S11300300C943E000C943E000C943E000C943E0044
S11300400C943E000C943E000C943E000C943E0034
S11300500C943E000C943E000C943E000C943E0024
S11300600C943E000C943E0011241FBECFEFD8E048
S1130070DEBFCDBF0E9440000C945F000C940000D2
S1130080CF93DF931F92CDB7DEB71092C00088E103
S11300908093C10086E08093C20087E68093C40009
S11300A08091C00085FFFCCF87E48093C6008091D7
S11300B0C0008823E4F78091C6008983F1CFF894C7
S10500C0FFCF6C
S9030000FC
