S010000073656D61666F726F2E73726563B8
S11300000C9434000C9446000C9446000C94460066
S11300100C9446000C9446000C9446000C94460044
S11300200C9446000C9446000C9446000C94460034
S11300300C9446000C9446000C9446000C94460024
S11300400C9446000C9446000C9446000C94460014
S11300500C9446000C9446000C9446000C94460004
S11300600C9446000C94460011241FBECFEFD8E038
S1130070DEBFCDBF21E0A0E0B1E001C01D92A530FC
S1130080B207E1F70E9448000C9448010C94000068
S113009080E00E947B000E948B002FEF89E698E1AC
S11300A0215080409040E1F700C00000F4CF95B1AA
S11300B021E030E002C0220F331F8A95E2F7292B9A
S11300C025B9089595B121E030E002C0220F331F15
S11300D08A95E2F72095292325B9089584B1806E85
S11300E084B985E00E94620086E00E94620087E095
S11300F00E9462000895CF93C82F0E946E00C0939F
S11301000401109200011092010110920201109258
S11301100301CF910895809104018130A9F138F051
S1130120823009F45EC0833009F487C0089585E005
S11301300E94570086E00E94620087E00E946200ED
S11301408091000190910101A0910201B0910301FD
S11301500196A11DB11D8093000190930101A0930C
S11301600201B09303014497A105B10509F08FC0C2
S113017081E0809304011092000110920101109219
S1130180020110920301089585E00E94570086E061
S11301900E94570087E00E946200809100019091C4
S11301A00101A0910201B09103010196A11DB11DAD
S11301B08093000190930101A0930201B093030185
S11301C00597A105B10509F062C082E0809304019E
S11301D01092000110920101109202011092030189
S11301E0089585E00E94620086E00E94620087E034
S11301F00E9457008091000190910101A091020199
S1130200B09103010196A11DB11D8093000190934B
S11302100101A0930201B09303014E97A105B1051A
S1130220B1F583E080930401109200011092010162
S11302301092020110920301089585E00E94620069
S113024086E00E94570087E00E94620080910001CE
S113025090910101A0910201B09103010196A11DA9
S1130260B11D8093000190930101A0930201B0930A
S113027003010597A105B10551F4109204011092F0
S113028000011092010110920201109203010895DD
S1070290F894FFCF0C
S9030000FC
