S011000067656E657261646F722E737265635C
S11300000C9434000C943E000C943E000C943E007E
S11300100C943E000C943E000C943E000C943E0064
S11300200C943E000C943E000C943E000C943E0054
S11300300C943E000C943E000C943E000C943E0044
S11300400C943E000C943E000C943E000C943E0034
S11300500C943E000C943E000C943E000C943E0024
S11300600C943E000C943E0011241FBECFEFD8E048
S1130070DEBFCDBF0E944B000C94F6000C94000030
S1130080CF93C82F0E946D008C2F0E9479000E948C
S11300908300CF91089584E690E00E94400080E0C0
S11300A090E008959C01245631092D3A364298F483
S11300B09C01220F331F40E050E060E072E18AE7C8
S11300C090E00E94A10021503109309389002093CF
S11300D0880081E0089580E0089581E08AB983E290
S11300E099E10E94520082E084B980E48093800008
S11300F00895682F70E081E090E00E948D00CB01AC
S11301000E945200089589E08093810085B19BB1DB
S11301108270880F89278BB9F9CF97FB072E16F4C5
S1130120009407D077FD09D00E94C00007FC05D0D9
S11301303EF4909581959F4F0895709561957F4FFA
S11301400895052E97FB1EF400940E94B80057FDF5
S113015007D00E94D40007FC03D04EF40C94B800DE
S113016050954095309521953F4F4F4F5F4F0895DF
S113017090958095709561957F4F8F4F9F4F08950F
S1130180AA1BBB1B51E107C0AA1FBB1FA617B707B9
S113019010F0A61BB70B881F991F5A95A9F78095D5
S11301A09095BC01CD010895A1E21A2EAA1BBB1B98
S11301B0FD010DC0AA1FBB1FEE1FFF1FA217B3072F
S11301C0E407F50720F0A21BB30BE40BF50B661F45
S11301D0771F881F991F1A9469F760957095809509
S11301E090959B01AC01BD01CF010895F894FFCF18
S9030000FC
