S01700004763634170706C69636174696F6E312E737265635B
S11300000C9434000C943E000C943E000C943E007E
S11300100C943E000C943E000C943E000C943E0064
S11300200C943E000C943E000C943E000C943E0054
S11300300C943E000C943E000C943E000C943E0044
S11300400C943E000C943E000C943E000C943E0034
S11300500C943E000C943E000C943E000C943E0024
S11300600C943E000C943E0011241FBECFEFD8E048
S1130070DEBFCDBF0E9440000C9474000C940000BD
S11300808EEF87B982E088B98FEF84B9309B16C0B0
S11300908AEA85B92FEF80E792E0215080409040B2
S11300A0E1F700C0000015B82FEF80E792E021507F
S11300B080409040E1F700C00000E8CF85E585B9B5
S11300C02FEF80E792E0215080409040E1F700C09C
S11300D0000015B82FEF80E792E021508040904057
S10F00E0E1F700C00000D2CFF894FFCF7D
S9030000FC
