S0130000656A6572636963696F20322E7372656312
S11300000C94CC000C94E9000C94E9000C94E900E5
S11300100C94E9000C94E9000C94E9000C94E900B8
S11300200C94E9000C94E9000C94E9000C94E900A8
S11300300C94E9000C94E9000C94E9000C94E90098
S11300400C94E9000C94E9000C94E9000C94E90088
S11300500C94E9000C94E9000C94E9000C94E90078
S11300600C94E9000C94E90026010601060106013E
S1130070080106010A010C01060106010601060138
S11300800601060106010601060106010601060134
S11300900601060106010601060106010601060124
S11300A00601060106010601060106010601060114
S11300B00601060106010601060106010601060104
S11300C006010601060106010601060106010601F4
S11300D006010601060106010601060106010601E4
S11300E006010601060106010E01060106010601CC
S11300F010010601120114010601060106010601A0
S113010006010601060106010601060106010601B3
S113011006010601060106010601060106010601A3
S11301200601060106010601160106010601060183
S1130130180106011A011C01060106010601060147
S113014006010601060106011E010601060106015B
S11301502001060122012401001F000000001F00ED
S1130160001F101010101F00001F181818181F006F
S1130170001F1C1C1C1C1F00001F1E1E1E1E1F0017
S1130180001F1F1F1F1F1F0003070F1F0F07030060
S1130190181C1E1F1E1C180011241FBECFEFD8E010
S11301A0DEBFCDBF11E0A0E0B1E0E8E2F5E002C0BF
S11301B005900D92A230B107D9F721E0A2E0B1E099
S11301C001C01D92A430B207E1F70E948A020C9488
S11301D092020C94000020E1829FC00111249BB183
S11301E09F70892B8BB908958BB182958F70089578
S11301F089B1806F089590E0FC01E757F109E83771
S1130200F10520F4EC5CFF4F0C948C0280E008951F
S113021088E3089589E308958FE2089584E30895B7
S113022085E3089586E308958AE2089581E30895B5
S113023082E3089583E308958DE2089580E70895A5
S113024080E308958DE308958BE2089587E308958C
S1130250CF93DF93EC0180EF8AB98FE08BB980E014
S11302600E94EB000E94F8008F3FA1F08EE00E94F4
S1130270EB000E94F8008F3F31F089B10E94FB002F
S1130280888381E008C00E94F400880F8F5F0E9479
S1130290EB00EFCF80E0DF91CF910895CF93DF9310
S11302A0EC0183E091E00E942801811106C09FEFD8
S11302B0909302019093000114C0809103019091E6
S11302C0020189130BC090910001891739F08883CA
S11302D0809103018093000181E003C080930201B7
S11302E080E0DF91CF910895982F907F95B995B1D3
S11302F0916095B995B1946095B92AE62A95F1F77C
S113030000C095B19B7F95B995B19E7F95B99AE64A
S11303109A95F1F700C020E1829FC001112485B9AC
S113032085B1816085B985B1846085B98AE68A958D
S1130330F1F700C085B18B7F85B985B18E7F85B912
S11303409AE69A95F1F700C00895982F907F95B991
S113035095B1946095B9EFECF7E03197F1F700C0EF
S1130360000095B19B7F95B9EFECF7E03197F1F779
S113037000C00000F0E18F9FC001112485B985B150
S1130380846085B98FEC97E00197F1F700C0000015
S113039085B18B7F85B9EFECF7E03197F1F700C0B9
S11303A000000895623031F0633031F0613029F497
S11303B0805C03C08C5E01C08C5A80680E94A501D9
S11303C00895EF92FF920F931F93CF93DF937C01D5
S11303D0862F90E0880F991F880F991F880F991F07
S11303E08064C0E0D0E00DC0F701EC0FFD1F149154
S11303F001E0080F0E94A501812F0E94740121963B
S1130400802FC830D10580F3DF91CF911F910F91D8
S1130410FF90EF900895CF93DF938FE295E70197D4
S1130420F1F700C0000015B815B884B1806F84B925
S113043084B1876084B990E395B985B1846085B946
S1130440EFECF7E03197F1F700C0000085B18B7F46
S113045085B9EFECF7E03197F1F700C0000095B9EA
S113046085B1846085B98FEC97E00197F1F700C0FE
S1130470000085B18B7F85B9EFECF7E03197F1F798
S113048000C0000080E285B985B1846085B98FEC35
S113049097E00197F1F700C0000085B18B7F85B923
S11304A0EFECF7E03197F1F700C0000088E20E941A
S11304B0A5018CE00E94A50160E0C0E00AC0D1E083
S11304C0D60F8C2F90E0885A9E4F0E94E101C85F9E
S11304D06D2FC034A0F3DF91CF910895CF93DF93B4
S11304E01F92CDB7DEB70E940B0260E080E00E944D
S11304F0D2011982CE0101960E944E01882319F07F
S113050089810E9474018FE19EE40197F1F700C094
S11305100000EFCF0E946E02EE0FFF1F0590F491D2
S10B0520E02D0994F894FFCFCB
S1050528FF00CE
S9030000FC
