S0130000656A6572636963696F20322E7372656312
S11300000C9454000C9471000C9471000C947100C5
S11300100C9471000C9471000C9471000C94710098
S11300200C9471000C9471000C9471000C94710088
S11300300C9471000C9471000C9471000C94710078
S11300400C9471000C9471000C9471000C94710068
S11300500C9471000C9471000C9471000C94710058
S11300600C9471000C947100001F000000001F002C
S1130070001F101010101F00001F181818181F0060
S1130080001F1C1C1C1C1F00001F1E1E1E1E1F0008
S1130090001F1F1F1F1F1F0003070F1F0F07030051
S11300A0181C1E1F1E1C180011241FBECFEFD8E001
S11300B0DEBFCDBF11E0A0E0B1E0E4E7F3E002C0B1
S11300C005900D92A431B107D9F721E0A4E1B1E084
S11300D001C01D92A431B207E1F70E94B3010C9450
S11300E0B8010C940000982F907F95B995B1916058
S11300F095B995B1946095B92AE62A95F1F700C0AF
S113010095B19B7F95B995B19E7F95B99AE69A95DD
S1130110F1F700C020E1829FC001112485B985B1A7
S1130120816085B985B1846085B98AE68A95F1F7DD
S113013000C085B18B7F85B985B18E7F85B99AE67C
S11301409A95F1F700C00895982F907F95B995B1CD
S1130150946095B9EFECF7E03197F1F700C0000037
S113016095B19B7F95B9EFECF7E03197F1F700C0BB
S11301700000F0E18F9FC001112485B985B184602E
S113018085B98FEC97E00197F1F700C0000085B1C5
S11301908B7F85B9EFECF7E03197F1F700C00000F1
S11301A008950F931F93CF93DF93009769F0D62F91
S11301B08C01C0E007C0F801EC0FF11D80810E94A2
S11301C07300CF5FCD17B8F3DF91CF911F910F91DB
S11301D00895623031F0633031F0613029F4805C8D
S11301E003C08C5E01C08C5A80680E94A4000895EC
S11301F0EF92FF920F931F93CF93DF937C01862F8F
S113020090E0880F991F880F991F880F991F8064A9
S1130210C0E0D0E00DC0F701EC0FFD1F149101E028
S1130220080F0E94A400812F0E9473002196802F42
S1130230C830D10580F3DF91CF911F910F91FF90CA
S1130240EF900895CF93DF938FE295E70197F1F74D
S113025000C0000015B815B884B1806F84B984B1AA
S1130260876084B990E395B985B1846085B9EFEC72
S1130270F7E03197F1F700C0000085B18B7F85B9B5
S1130280EFECF7E03197F1F700C0000095B985B1C4
S1130290846085B98FEC97E00197F1F700C0000006
S11302A085B18B7F85B9EFECF7E03197F1F700C0AA
S11302B0000080E285B985B1846085B98FEC97E050
S11302C00197F1F700C0000085B18B7F85B9EFEC91
S11302D0F7E03197F1F700C0000088E20E94A40023
S11302E08CE00E94A40060E0C0E00AC0D1E0D60F18
S11302F08C2F90E088599F4F0E94F800C85F6D2FA3
S1130300C034A0F3DF91CF910895CF93DF93CDB79D
S1130310DEB764970FB6F894DEBF0FBECDBF0E9460
S1130320220160E080E00E94E90087E0E0E0F1E083
S1130330DE01119601900D928A95E1F7FE0138963F
S11303408DE0DF011D928A95E9F764E1CE01019603
S11303500E94D10064960FB6F894DEBF0FBECDBFE5
S1130360DF91CF9108950E94850180E090E0089587
S1070370F894FFCF2B
S113037474657374656F00000000000000000000E1
S10703840000000071
S9030000FC
