S01500004D6566416E74695265626F74652E737265630A
S11300000C9434000C9446000C9446000C94460066
S11300100C9446000C9446000C9446000C94460044
S11300200C9446000C9446000C9446000C94460034
S11300300C9446000C9446000C9446000C94460024
S11300400C9446000C9446000C9446000C94460014
S11300500C9446000C9446000C9446000C94460004
S11300600C9446000C94460011241FBECFEFD8E038
S1130070DEBFCDBF21E0A0E0B1E001C01D92A330FE
S1130080B207E1F70E94C1000C94D8000C94000060
S1130090199B02C080E0089581E0089584B18D7FAA
S11300A084B985B1826085B908950E944E0010928A
S11300B0020110920101109200010895CF93DF9381
S11300C080910201813089F028F0823049F1833037
S11300D081F149C00E944800882309F444C081E0AA
S11300E080930201109201013EC0909100019F5F34
S11300F090930001C1E0D0E0943111F0C0E0D0E071
S11301000E94480090E0C823D923CD2B61F182E0FE
S11301108093020181E0809301011092000123C0C9
S11301200E94480083E08093020181E080930101F2
S11301301AC0809100018F5F80930001C1E0D0E07C
S1130140843111F0C0E0D0E00E94480090E0809536
S113015090958C239D23892B31F0109202011092EB
S1130160010110920001DF91CF9108958091010166
S1130170089585B1846085B9089585B18B7F85B96B
S113018008950E94550084B1846084B90E945E0081
S11301900E94B600882319F00E94B90002C00E9490
S11301A0BD008FEC97E00197F1F700C00000EBCFA2
S10701B0F894FFCFED
S9030000FC
