S00B00005450322E7372656343
S11300000C94CC000C94DE000C94DE000C94DE0006
S11300100C94DE000C94DE000C94DE000C94DE00E4
S11300200C94DE000C94DE000C94DE000C94DE00D4
S11300300C94DE000C94DE000C94DE000C94DE00C4
S11300400C94DE000C94DE000C94DE000C94DE00B4
S11300500C94DE000C94DE000C94DE000C94DE00A4
S11300600C94DE000C94DE003602860286028602C0
S11300703B0286024002450286028602860286020E
S1130080860286028602860286028602860286022C
S1130090860286028602860286028602860286021C
S11300A0860286028602860286028602860286020C
S11300B086028602860286028602860286028602FC
S11300C086028602860286028602860286028602EC
S11300D086028602860286028602860286028602DC
S11300E086028602860286024A0286028602860208
S11300F04F02860254025902860286028602860252
S113010086028602860286028602860286028602AB
S1130110860286028602860286028602860286029B
S113012086028602860286025E02860286028602B3
S11301306302860268026D028602860286028602D5
S1130140860286028602860272028602860286027F
S1130150770286027C028102001F000000001F005B
S1130160001F101010101F00001F181818181F006F
S1130170001F1C1C1C1C1F00001F1E1E1E1E1F0017
S1130180001F1F1F1F1F1F0003070F1F0F07030060
S1130190181C1E1F1E1C180011241FBECFEFD8E010
S11301A0DEBFCDBF21E0A0E0B1E001C01D92A030D0
S11301B0B207E1F70E9491020C94B6020C9400007D
S11301C0982F907F95B995B1916095B995B1946048
S11301D095B92AE62A95F1F700C095B19B7F95B9A8
S11301E095B19E7F95B99AE69A95F1F700C020E102
S11301F0829FC001112485B985B1816085B985B11B
S1130200846085B98AE68A95F1F700C085B18B7F51
S113021085B985B18E7F85B99AE69A95F1F700C0C4
S11302200895982F907F95B995B1946095B9EFECA6
S1130230F7E03197F1F700C0000095B19B7F95B9C5
S1130240EFECF7E03197F1F700C00000F0E18F9F89
S1130250C001112485B985B1846085B98FEC97E01C
S11302600197F1F700C0000085B18B7F85B9EFECF1
S1130270F7E03197F1F700C000000895623031F0E3
S1130280633031F0613029F4805C03C08C5E01C0BE
S11302908C5A80680E9411010895EF92FF920F9387
S11302A01F93CF93DF937C01862F90E0880F991FD3
S11302B0880F991F880F991F8064C0E0D0E00DC09B
S11302C0F701EC0FFD1F149101E0080F0E941101CA
S11302D0812F0E94E0002196802FC830D10580F341
S11302E0DF91CF911F910F91FF90EF900895CF93DD
S11302F0DF938FE295E70197F1F700C0000015B88E
S113030015B884B1806F84B984B1876084B990E3EF
S113031095B985B1846085B9EFECF7E03197F1F7D1
S113032000C0000085B18B7F85B9EFECF7E0319711
S1130330F1F700C0000095B985B1846085B98FECF0
S113034097E00197F1F700C0000085B18B7F85B974
S1130350EFECF7E03197F1F700C0000080E285B9D7
S113036085B1846085B98FEC97E00197F1F700C0FF
S1130370000085B18B7F85B9EFECF7E03197F1F799
S113038000C0000088E20E9411018CE00E9411016B
S113039060E0C0E00AC0D1E0D60F8C2F90E0885A0C
S11303A09E4F0E944D01C85F6D2FC034A0F3DF91B2
S11303B0CF91089520E1829FC00111249BB19F70C9
S11303C0892B8BB908958BB182958F70089589B16B
S11303D0806F08950F931F93CF93DF938C018CE765
S11303E00E94E00080EF8AB98FE08BB980E00E9420
S11303F0DA012FEF80E792E0215080409040E1F74E
S113040000C000000E94E7018F3F09F484C0EFEFB1
S1130410F0E722E0E150F0402040E1F700C00000A6
S11304208EE00E94DA018FEF90E7E2E08150904085
S1130430E040E1F700C000000E94E7010E94E301F0
S1130440F0E18F9FE00111240E94E7018F70EC2FEF
S1130450E82B8E2F90E0FC01E757F109E837F1050E
S113046008F054C0EC5CFF4F0C94B00287E3F80131
S1130470808381E051C088E3F801808381E04CC02F
S113048089E3F801808381E047C08FE2F80180832B
S113049081E042C084E3F801808381E03DC085E3CC
S11304A0F801808381E038C086E3F801808381E02D
S11304B033C08AE2F801808381E02EC081E3F80131
S11304C0808381E029C082E3F801808381E024C035
S11304D083E3F801808381E01FC08DE2F80180830B
S11304E081E01AC080E7F801808381E015C080E3D1
S11304F0F801808381E010C08DE3F801808381E0FE
S11305000BC08BE2F801808381E006C084E4F8012B
S1130510808381E001C080E0DF91CF911F910F9132
S11305200895CF93DF931F92CDB7DEB70E94770172
S113053060E080E00E943E011982CE0101960E9493
S1130540EA01882319F089810E94E0002FEF80E7F7
S113055092E0215080409040E1F700C00000ECCFD1
S1130560EE0FFF1F0590F491E02D0994F894FFCF4E
S9030000FC
