S01700004763634170706C69636174696F6E342E7372656358
S11300000C9434000C9446000C9446000C94460066
S11300100C9446000C9446000C9446000C94460044
S11300200C9446000C9446000C9446000C94460034
S11300300C9446000C9446000C9446000C94460024
S11300400C9446000C9446000C9446000C94460014
S11300500C9446000C9446000C9446000C94460004
S11300600C9446000C94460011241FBECFEFD8E038
S1130070DEBFCDBF21E0A0E0B1E001C01D92A03001
S1130080B207E1F70E9462000C946D000C9400002A
S113009080EF8AB98BB18F708BB989B18F7071F48D
S11300A08FEE8BB989B1811105C08BB1807F41F48A
S11300B089B106C08BB1880F8BB9F4CF80E0089565
S11300C081E00895CF93DF931F92CDB7DEB71982F5
S11100D0CE0101960E944800FACFF894FFCFAB
S9030000FC
