S00D0000656A3130622E7372656385
S11300000C9434000C9446000C9446000C94460066
S11300100C9446000C9446000C9446000C94460044
S11300200C9446000C9446000C9446000C94460034
S11300300C9446000C9446000C9481000C944600E9
S11300400C9446000C9446000C9446000C94460014
S11300500C9446000C9446000C9446000C94460004
S11300600C9446000C94460011241FBECFEFD8E038
S1130070DEBFCDBF21E0A0E0B1E001C01D92A13000
S1130080B207E1F70E9448000C948D000C94000024
S113009081E084B984E60E94760095B181E08927E5
S11300A085B9F8CF82E084BD089582E085BD0895C6
S11300B061E070E080E090E0089582E085BB0895FF
S11300C082E080936E000895CF93C82F0E9452005F
S11300D00E9455000E9458006C9F602D112467BD3A
S11300E00E945D000E946000CF9108950E94640008
S11300F0789481E080930001809100018111FCCF0C
S113010008951F920F920FB60F92112410920001BE
S11101100F900FBE0F901F901895F894FFCF1C
S9030000FC
